{
	"compilerInput": "{\"language\":\"Solidity\",\"sources\":{\"DocumentRegistry.sol\":{\"content\":\"// SPDX-License-Identifier: MIT\\r\\npragma solidity ^0.8.0;\\r\\n\\r\\ncontract DocumentRegistry {\\r\\n    struct Document {\\r\\n        address owner;\\r\\n        uint256 timestamp;\\r\\n    }\\r\\n\\r\\n    mapping(string => Document) private documents;\\r\\n\\r\\n    event DocumentRegistered(string indexed docHash, address indexed owner, uint256 timestamp);\\r\\n\\r\\n    function registerDocument(string calldata docHash) external {\\r\\n        require(bytes(docHash).length == 64, \\\"Invalid SHA-256 hash\\\");\\r\\n        require(documents[docHash].timestamp == 0, \\\"Document already registered\\\");\\r\\n\\r\\n        documents[docHash] = Document({\\r\\n            owner: msg.sender,\\r\\n            timestamp: block.timestamp\\r\\n        });\\r\\n\\r\\n        emit DocumentRegistered(docHash, msg.sender, block.timestamp);\\r\\n    }\\r\\n\\r\\n    function verifyDocument(string calldata docHash) external view returns (bool exists, address owner, uint256 timestamp) {\\r\\n        Document memory doc = documents[docHash];\\r\\n        exists = doc.timestamp != 0;\\r\\n        owner = doc.owner;\\r\\n        timestamp = doc.timestamp;\\r\\n    }\\r\\n}\\r\\n\"}},\"settings\":{\"optimizer\":{\"enabled\":false,\"runs\":200},\"outputSelection\":{\"*\":{\"\":[\"ast\"],\"*\":[\"abi\",\"metadata\",\"devdoc\",\"userdoc\",\"storageLayout\",\"evm.legacyAssembly\",\"evm.bytecode\",\"evm.deployedBytecode\",\"evm.methodIdentifiers\",\"evm.gasEstimates\",\"evm.assembly\"]}},\"remappings\":[]}}",
	"name": "DocumentRegistry",
	"bytecode": {
		"linkReferences": {},
		"object": "6080604052348015600e575f5ffd5b506105bf8061001c5f395ff3fe608060405234801561000f575f5ffd5b5060043610610034575f3560e01c80634847a47014610038578063beee5eb714610054575b5f5ffd5b610052600480360381019061004d919061034b565b610086565b005b61006e6004803603810190610069919061034b565b610235565b60405161007d93929190610407565b60405180910390f35b604082829050146100cc576040517f08c379a00000000000000000000000000000000000000000000000000000000081526004016100c390610496565b60405180910390fd5b5f5f83836040516100de9291906104f0565b90815260200160405180910390206001015414610130576040517f08c379a000000000000000000000000000000000000000000000000000000000815260040161012790610552565b60405180910390fd5b60405180604001604052803373ffffffffffffffffffffffffffffffffffffffff168152602001428152505f838360405161016c9291906104f0565b90815260200160405180910390205f820151815f015f6101000a81548173ffffffffffffffffffffffffffffffffffffffff021916908373ffffffffffffffffffffffffffffffffffffffff160217905550602082015181600101559050503373ffffffffffffffffffffffffffffffffffffffff1682826040516101f29291906104f0565b60405180910390207fa480cfd3e8635016e70d79cba8736969cb3674ce0af6b5e1229168453689088c426040516102299190610570565b60405180910390a35050565b5f5f5f5f5f868660405161024a9291906104f0565b90815260200160405180910390206040518060400160405290815f82015f9054906101000a900473ffffffffffffffffffffffffffffffffffffffff1673ffffffffffffffffffffffffffffffffffffffff1673ffffffffffffffffffffffffffffffffffffffff16815260200160018201548152505090505f816020015114159350805f0151925080602001519150509250925092565b5f5ffd5b5f5ffd5b5f5ffd5b5f5ffd5b5f5ffd5b5f5f83601f84011261030b5761030a6102ea565b5b8235905067ffffffffffffffff811115610328576103276102ee565b5b602083019150836001820283011115610344576103436102f2565b5b9250929050565b5f5f60208385031215610361576103606102e2565b5b5f83013567ffffffffffffffff81111561037e5761037d6102e6565b5b61038a858286016102f6565b92509250509250929050565b5f8115159050919050565b6103aa81610396565b82525050565b5f73ffffffffffffffffffffffffffffffffffffffff82169050919050565b5f6103d9826103b0565b9050919050565b6103e9816103cf565b82525050565b5f819050919050565b610401816103ef565b82525050565b5f60608201905061041a5f8301866103a1565b61042760208301856103e0565b61043460408301846103f8565b949350505050565b5f82825260208201905092915050565b7f496e76616c6964205348412d32353620686173680000000000000000000000005f82015250565b5f61048060148361043c565b915061048b8261044c565b602082019050919050565b5f6020820190508181035f8301526104ad81610474565b9050919050565b5f81905092915050565b828183375f83830152505050565b5f6104d783856104b4565b93506104e48385846104be565b82840190509392505050565b5f6104fc8284866104cc565b91508190509392505050565b7f446f63756d656e7420616c7265616479207265676973746572656400000000005f82015250565b5f61053c601b8361043c565b915061054782610508565b602082019050919050565b5f6020820190508181035f83015261056981610530565b9050919050565b5f6020820190506105835f8301846103f8565b9291505056fea2646970667358221220593dac902058173801cdc4b6918de2096b0082be5ae59c4d7fc730506dc089a964736f6c634300081e0033",
		"opcodes": "PUSH1 0x80 PUSH1 0x40 MSTORE CALLVALUE DUP1 ISZERO PUSH1 0xE JUMPI PUSH0 PUSH0 REVERT JUMPDEST POP PUSH2 0x5BF DUP1 PUSH2 0x1C PUSH0 CODECOPY PUSH0 RETURN INVALID PUSH1 0x80 PUSH1 0x40 MSTORE CALLVALUE DUP1 ISZERO PUSH2 0xF JUMPI PUSH0 PUSH0 REVERT JUMPDEST POP PUSH1 0x4 CALLDATASIZE LT PUSH2 0x34 JUMPI PUSH0 CALLDATALOAD PUSH1 0xE0 SHR DUP1 PUSH4 0x4847A470 EQ PUSH2 0x38 JUMPI DUP1 PUSH4 0xBEEE5EB7 EQ PUSH2 0x54 JUMPI JUMPDEST PUSH0 PUSH0 REVERT JUMPDEST PUSH2 0x52 PUSH1 0x4 DUP1 CALLDATASIZE SUB DUP2 ADD SWAP1 PUSH2 0x4D SWAP2 SWAP1 PUSH2 0x34B JUMP JUMPDEST PUSH2 0x86 JUMP JUMPDEST STOP JUMPDEST PUSH2 0x6E PUSH1 0x4 DUP1 CALLDATASIZE SUB DUP2 ADD SWAP1 PUSH2 0x69 SWAP2 SWAP1 PUSH2 0x34B JUMP JUMPDEST PUSH2 0x235 JUMP JUMPDEST PUSH1 0x40 MLOAD PUSH2 0x7D SWAP4 SWAP3 SWAP2 SWAP1 PUSH2 0x407 JUMP JUMPDEST PUSH1 0x40 MLOAD DUP1 SWAP2 SUB SWAP1 RETURN JUMPDEST PUSH1 0x40 DUP3 DUP3 SWAP1 POP EQ PUSH2 0xCC JUMPI PUSH1 0x40 MLOAD PUSH32 0x8C379A000000000000000000000000000000000000000000000000000000000 DUP2 MSTORE PUSH1 0x4 ADD PUSH2 0xC3 SWAP1 PUSH2 0x496 JUMP JUMPDEST PUSH1 0x40 MLOAD DUP1 SWAP2 SUB SWAP1 REVERT JUMPDEST PUSH0 PUSH0 DUP4 DUP4 PUSH1 0x40 MLOAD PUSH2 0xDE SWAP3 SWAP2 SWAP1 PUSH2 0x4F0 JUMP JUMPDEST SWAP1 DUP2 MSTORE PUSH1 0x20 ADD PUSH1 0x40 MLOAD DUP1 SWAP2 SUB SWAP1 KECCAK256 PUSH1 0x1 ADD SLOAD EQ PUSH2 0x130 JUMPI PUSH1 0x40 MLOAD PUSH32 0x8C379A000000000000000000000000000000000000000000000000000000000 DUP2 MSTORE PUSH1 0x4 ADD PUSH2 0x127 SWAP1 PUSH2 0x552 JUMP JUMPDEST PUSH1 0x40 MLOAD DUP1 SWAP2 SUB SWAP1 REVERT JUMPDEST PUSH1 0x40 MLOAD DUP1 PUSH1 0x40 ADD PUSH1 0x40 MSTORE DUP1 CALLER PUSH20 0xFFFFFFFFFFFFFFFFFFFFFFFFFFFFFFFFFFFFFFFF AND DUP2 MSTORE PUSH1 0x20 ADD TIMESTAMP DUP2 MSTORE POP PUSH0 DUP4 DUP4 PUSH1 0x40 MLOAD PUSH2 0x16C SWAP3 SWAP2 SWAP1 PUSH2 0x4F0 JUMP JUMPDEST SWAP1 DUP2 MSTORE PUSH1 0x20 ADD PUSH1 0x40 MLOAD DUP1 SWAP2 SUB SWAP1 KECCAK256 PUSH0 DUP3 ADD MLOAD DUP2 PUSH0 ADD PUSH0 PUSH2 0x100 EXP DUP2 SLOAD DUP2 PUSH20 0xFFFFFFFFFFFFFFFFFFFFFFFFFFFFFFFFFFFFFFFF MUL NOT AND SWAP1 DUP4 PUSH20 0xFFFFFFFFFFFFFFFFFFFFFFFFFFFFFFFFFFFFFFFF AND MUL OR SWAP1 SSTORE POP PUSH1 0x20 DUP3 ADD MLOAD DUP2 PUSH1 0x1 ADD SSTORE SWAP1 POP POP CALLER PUSH20 0xFFFFFFFFFFFFFFFFFFFFFFFFFFFFFFFFFFFFFFFF AND DUP3 DUP3 PUSH1 0x40 MLOAD PUSH2 0x1F2 SWAP3 SWAP2 SWAP1 PUSH2 0x4F0 JUMP JUMPDEST PUSH1 0x40 MLOAD DUP1 SWAP2 SUB SWAP1 KECCAK256 PUSH32 0xA480CFD3E8635016E70D79CBA8736969CB3674CE0AF6B5E1229168453689088C TIMESTAMP PUSH1 0x40 MLOAD PUSH2 0x229 SWAP2 SWAP1 PUSH2 0x570 JUMP JUMPDEST PUSH1 0x40 MLOAD DUP1 SWAP2 SUB SWAP1 LOG3 POP POP JUMP JUMPDEST PUSH0 PUSH0 PUSH0 PUSH0 PUSH0 DUP7 DUP7 PUSH1 0x40 MLOAD PUSH2 0x24A SWAP3 SWAP2 SWAP1 PUSH2 0x4F0 JUMP JUMPDEST SWAP1 DUP2 MSTORE PUSH1 0x20 ADD PUSH1 0x40 MLOAD DUP1 SWAP2 SUB SWAP1 KECCAK256 PUSH1 0x40 MLOAD DUP1 PUSH1 0x40 ADD PUSH1 0x40 MSTORE SWAP1 DUP2 PUSH0 DUP3 ADD PUSH0 SWAP1 SLOAD SWAP1 PUSH2 0x100 EXP SWAP1 DIV PUSH20 0xFFFFFFFFFFFFFFFFFFFFFFFFFFFFFFFFFFFFFFFF AND PUSH20 0xFFFFFFFFFFFFFFFFFFFFFFFFFFFFFFFFFFFFFFFF AND PUSH20 0xFFFFFFFFFFFFFFFFFFFFFFFFFFFFFFFFFFFFFFFF AND DUP2 MSTORE PUSH1 0x20 ADD PUSH1 0x1 DUP3 ADD SLOAD DUP2 MSTORE POP POP SWAP1 POP PUSH0 DUP2 PUSH1 0x20 ADD MLOAD EQ ISZERO SWAP4 POP DUP1 PUSH0 ADD MLOAD SWAP3 POP DUP1 PUSH1 0x20 ADD MLOAD SWAP2 POP POP SWAP3 POP SWAP3 POP SWAP3 JUMP JUMPDEST PUSH0 PUSH0 REVERT JUMPDEST PUSH0 PUSH0 REVERT JUMPDEST PUSH0 PUSH0 REVERT JUMPDEST PUSH0 PUSH0 REVERT JUMPDEST PUSH0 PUSH0 REVERT JUMPDEST PUSH0 PUSH0 DUP4 PUSH1 0x1F DUP5 ADD SLT PUSH2 0x30B JUMPI PUSH2 0x30A PUSH2 0x2EA JUMP JUMPDEST JUMPDEST DUP3 CALLDATALOAD SWAP1 POP PUSH8 0xFFFFFFFFFFFFFFFF DUP2 GT ISZERO PUSH2 0x328 JUMPI PUSH2 0x327 PUSH2 0x2EE JUMP JUMPDEST JUMPDEST PUSH1 0x20 DUP4 ADD SWAP2 POP DUP4 PUSH1 0x1 DUP3 MUL DUP4 ADD GT ISZERO PUSH2 0x344 JUMPI PUSH2 0x343 PUSH2 0x2F2 JUMP JUMPDEST JUMPDEST SWAP3 POP SWAP3 SWAP1 POP JUMP JUMPDEST PUSH0 PUSH0 PUSH1 0x20 DUP4 DUP6 SUB SLT ISZERO PUSH2 0x361 JUMPI PUSH2 0x360 PUSH2 0x2E2 JUMP JUMPDEST JUMPDEST PUSH0 DUP4 ADD CALLDATALOAD PUSH8 0xFFFFFFFFFFFFFFFF DUP2 GT ISZERO PUSH2 0x37E JUMPI PUSH2 0x37D PUSH2 0x2E6 JUMP JUMPDEST JUMPDEST PUSH2 0x38A DUP6 DUP3 DUP7 ADD PUSH2 0x2F6 JUMP JUMPDEST SWAP3 POP SWAP3 POP POP SWAP3 POP SWAP3 SWAP1 POP JUMP JUMPDEST PUSH0 DUP2 ISZERO ISZERO SWAP1 POP SWAP2 SWAP1 POP JUMP JUMPDEST PUSH2 0x3AA DUP2 PUSH2 0x396 JUMP JUMPDEST DUP3 MSTORE POP POP JUMP JUMPDEST PUSH0 PUSH20 0xFFFFFFFFFFFFFFFFFFFFFFFFFFFFFFFFFFFFFFFF DUP3 AND SWAP1 POP SWAP2 SWAP1 POP JUMP JUMPDEST PUSH0 PUSH2 0x3D9 DUP3 PUSH2 0x3B0 JUMP JUMPDEST SWAP1 POP SWAP2 SWAP1 POP JUMP JUMPDEST PUSH2 0x3E9 DUP2 PUSH2 0x3CF JUMP JUMPDEST DUP3 MSTORE POP POP JUMP JUMPDEST PUSH0 DUP2 SWAP1 POP SWAP2 SWAP1 POP JUMP JUMPDEST PUSH2 0x401 DUP2 PUSH2 0x3EF JUMP JUMPDEST DUP3 MSTORE POP POP JUMP JUMPDEST PUSH0 PUSH1 0x60 DUP3 ADD SWAP1 POP PUSH2 0x41A PUSH0 DUP4 ADD DUP7 PUSH2 0x3A1 JUMP JUMPDEST PUSH2 0x427 PUSH1 0x20 DUP4 ADD DUP6 PUSH2 0x3E0 JUMP JUMPDEST PUSH2 0x434 PUSH1 0x40 DUP4 ADD DUP5 PUSH2 0x3F8 JUMP JUMPDEST SWAP5 SWAP4 POP POP POP POP JUMP JUMPDEST PUSH0 DUP3 DUP3 MSTORE PUSH1 0x20 DUP3 ADD SWAP1 POP SWAP3 SWAP2 POP POP JUMP JUMPDEST PUSH32 0x496E76616C6964205348412D3235362068617368000000000000000000000000 PUSH0 DUP3 ADD MSTORE POP JUMP JUMPDEST PUSH0 PUSH2 0x480 PUSH1 0x14 DUP4 PUSH2 0x43C JUMP JUMPDEST SWAP2 POP PUSH2 0x48B DUP3 PUSH2 0x44C JUMP JUMPDEST PUSH1 0x20 DUP3 ADD SWAP1 POP SWAP2 SWAP1 POP JUMP JUMPDEST PUSH0 PUSH1 0x20 DUP3 ADD SWAP1 POP DUP2 DUP2 SUB PUSH0 DUP4 ADD MSTORE PUSH2 0x4AD DUP2 PUSH2 0x474 JUMP JUMPDEST SWAP1 POP SWAP2 SWAP1 POP JUMP JUMPDEST PUSH0 DUP2 SWAP1 POP SWAP3 SWAP2 POP POP JUMP JUMPDEST DUP3 DUP2 DUP4 CALLDATACOPY PUSH0 DUP4 DUP4 ADD MSTORE POP POP POP JUMP JUMPDEST PUSH0 PUSH2 0x4D7 DUP4 DUP6 PUSH2 0x4B4 JUMP JUMPDEST SWAP4 POP PUSH2 0x4E4 DUP4 DUP6 DUP5 PUSH2 0x4BE JUMP JUMPDEST DUP3 DUP5 ADD SWAP1 POP SWAP4 SWAP3 POP POP POP JUMP JUMPDEST PUSH0 PUSH2 0x4FC DUP3 DUP5 DUP7 PUSH2 0x4CC JUMP JUMPDEST SWAP2 POP DUP2 SWAP1 POP SWAP4 SWAP3 POP POP POP JUMP JUMPDEST PUSH32 0x446F63756D656E7420616C726561647920726567697374657265640000000000 PUSH0 DUP3 ADD MSTORE POP JUMP JUMPDEST PUSH0 PUSH2 0x53C PUSH1 0x1B DUP4 PUSH2 0x43C JUMP JUMPDEST SWAP2 POP PUSH2 0x547 DUP3 PUSH2 0x508 JUMP JUMPDEST PUSH1 0x20 DUP3 ADD SWAP1 POP SWAP2 SWAP1 POP JUMP JUMPDEST PUSH0 PUSH1 0x20 DUP3 ADD SWAP1 POP DUP2 DUP2 SUB PUSH0 DUP4 ADD MSTORE PUSH2 0x569 DUP2 PUSH2 0x530 JUMP JUMPDEST SWAP1 POP SWAP2 SWAP1 POP JUMP JUMPDEST PUSH0 PUSH1 0x20 DUP3 ADD SWAP1 POP PUSH2 0x583 PUSH0 DUP4 ADD DUP5 PUSH2 0x3F8 JUMP JUMPDEST SWAP3 SWAP2 POP POP JUMP INVALID LOG2 PUSH5 0x6970667358 0x22 SLT KECCAK256 MSIZE RETURNDATASIZE 0xAC SWAP1 KECCAK256 PC OR CODESIZE ADD 0xCD 0xC4 0xB6 SWAP2 DUP14 0xE2 MULMOD PUSH12 0x82BE5AE59C4D7FC730506D 0xC0 DUP10 0xA9 PUSH5 0x736F6C6343 STOP ADDMOD 0x1E STOP CALLER "
	},
	"abi": [
		{
			"anonymous": false,
			"inputs": [
				{
					"indexed": true,
					"internalType": "string",
					"name": "docHash",
					"type": "string"
				},
				{
					"indexed": true,
					"internalType": "address",
					"name": "owner",
					"type": "address"
				},
				{
					"indexed": false,
					"internalType": "uint256",
					"name": "timestamp",
					"type": "uint256"
				}
			],
			"name": "DocumentRegistered",
			"type": "event"
		},
		{
			"inputs": [
				{
					"internalType": "string",
					"name": "docHash",
					"type": "string"
				}
			],
			"name": "registerDocument",
			"outputs": [],
			"stateMutability": "nonpayable",
			"type": "function"
		},
		{
			"inputs": [
				{
					"internalType": "string",
					"name": "docHash",
					"type": "string"
				}
			],
			"name": "verifyDocument",
			"outputs": [
				{
					"internalType": "bool",
					"name": "exists",
					"type": "bool"
				},
				{
					"internalType": "address",
					"name": "owner",
					"type": "address"
				},
				{
					"internalType": "uint256",
					"name": "timestamp",
					"type": "uint256"
				}
			],
			"stateMutability": "view",
			"type": "function"
		}
	],
	"storageLayout": {
		"storage": [
			{
				"astId": 11,
				"contract": "DocumentRegistry.sol:DocumentRegistry",
				"label": "documents",
				"offset": 0,
				"slot": "0",
				"type": "t_mapping(t_string_memory_ptr,t_struct(Document)6_storage)"
			}
		],
		"types": {
			"t_address": {
				"encoding": "inplace",
				"label": "address",
				"numberOfBytes": "20"
			},
			"t_mapping(t_string_memory_ptr,t_struct(Document)6_storage)": {
				"encoding": "mapping",
				"key": "t_string_memory_ptr",
				"label": "mapping(string => struct DocumentRegistry.Document)",
				"numberOfBytes": "32",
				"value": "t_struct(Document)6_storage"
			},
			"t_string_memory_ptr": {
				"encoding": "bytes",
				"label": "string",
				"numberOfBytes": "32"
			},
			"t_struct(Document)6_storage": {
				"encoding": "inplace",
				"label": "struct DocumentRegistry.Document",
				"members": [
					{
						"astId": 3,
						"contract": "DocumentRegistry.sol:DocumentRegistry",
						"label": "owner",
						"offset": 0,
						"slot": "0",
						"type": "t_address"
					},
					{
						"astId": 5,
						"contract": "DocumentRegistry.sol:DocumentRegistry",
						"label": "timestamp",
						"offset": 0,
						"slot": "1",
						"type": "t_uint256"
					}
				],
				"numberOfBytes": "64"
			},
			"t_uint256": {
				"encoding": "inplace",
				"label": "uint256",
				"numberOfBytes": "32"
			}
		}
	},
	"web3Deploy": "var documentregistryContract = new web3.eth.Contract([{\"anonymous\":false,\"inputs\":[{\"indexed\":true,\"internalType\":\"string\",\"name\":\"docHash\",\"type\":\"string\"},{\"indexed\":true,\"internalType\":\"address\",\"name\":\"owner\",\"type\":\"address\"},{\"indexed\":false,\"internalType\":\"uint256\",\"name\":\"timestamp\",\"type\":\"uint256\"}],\"name\":\"DocumentRegistered\",\"type\":\"event\"},{\"inputs\":[{\"internalType\":\"string\",\"name\":\"docHash\",\"type\":\"string\"}],\"name\":\"registerDocument\",\"outputs\":[],\"stateMutability\":\"nonpayable\",\"type\":\"function\"},{\"inputs\":[{\"internalType\":\"string\",\"name\":\"docHash\",\"type\":\"string\"}],\"name\":\"verifyDocument\",\"outputs\":[{\"internalType\":\"bool\",\"name\":\"exists\",\"type\":\"bool\"},{\"internalType\":\"address\",\"name\":\"owner\",\"type\":\"address\"},{\"internalType\":\"uint256\",\"name\":\"timestamp\",\"type\":\"uint256\"}],\"stateMutability\":\"view\",\"type\":\"function\"}]);\nvar documentregistry = documentregistryContract.deploy({\n     data: '0x6080604052348015600e575f5ffd5b506105bf8061001c5f395ff3fe608060405234801561000f575f5ffd5b5060043610610034575f3560e01c80634847a47014610038578063beee5eb714610054575b5f5ffd5b610052600480360381019061004d919061034b565b610086565b005b61006e6004803603810190610069919061034b565b610235565b60405161007d93929190610407565b60405180910390f35b604082829050146100cc576040517f08c379a00000000000000000000000000000000000000000000000000000000081526004016100c390610496565b60405180910390fd5b5f5f83836040516100de9291906104f0565b90815260200160405180910390206001015414610130576040517f08c379a000000000000000000000000000000000000000000000000000000000815260040161012790610552565b60405180910390fd5b60405180604001604052803373ffffffffffffffffffffffffffffffffffffffff168152602001428152505f838360405161016c9291906104f0565b90815260200160405180910390205f820151815f015f6101000a81548173ffffffffffffffffffffffffffffffffffffffff021916908373ffffffffffffffffffffffffffffffffffffffff160217905550602082015181600101559050503373ffffffffffffffffffffffffffffffffffffffff1682826040516101f29291906104f0565b60405180910390207fa480cfd3e8635016e70d79cba8736969cb3674ce0af6b5e1229168453689088c426040516102299190610570565b60405180910390a35050565b5f5f5f5f5f868660405161024a9291906104f0565b90815260200160405180910390206040518060400160405290815f82015f9054906101000a900473ffffffffffffffffffffffffffffffffffffffff1673ffffffffffffffffffffffffffffffffffffffff1673ffffffffffffffffffffffffffffffffffffffff16815260200160018201548152505090505f816020015114159350805f0151925080602001519150509250925092565b5f5ffd5b5f5ffd5b5f5ffd5b5f5ffd5b5f5ffd5b5f5f83601f84011261030b5761030a6102ea565b5b8235905067ffffffffffffffff811115610328576103276102ee565b5b602083019150836001820283011115610344576103436102f2565b5b9250929050565b5f5f60208385031215610361576103606102e2565b5b5f83013567ffffffffffffffff81111561037e5761037d6102e6565b5b61038a858286016102f6565b92509250509250929050565b5f8115159050919050565b6103aa81610396565b82525050565b5f73ffffffffffffffffffffffffffffffffffffffff82169050919050565b5f6103d9826103b0565b9050919050565b6103e9816103cf565b82525050565b5f819050919050565b610401816103ef565b82525050565b5f60608201905061041a5f8301866103a1565b61042760208301856103e0565b61043460408301846103f8565b949350505050565b5f82825260208201905092915050565b7f496e76616c6964205348412d32353620686173680000000000000000000000005f82015250565b5f61048060148361043c565b915061048b8261044c565b602082019050919050565b5f6020820190508181035f8301526104ad81610474565b9050919050565b5f81905092915050565b828183375f83830152505050565b5f6104d783856104b4565b93506104e48385846104be565b82840190509392505050565b5f6104fc8284866104cc565b91508190509392505050565b7f446f63756d656e7420616c7265616479207265676973746572656400000000005f82015250565b5f61053c601b8361043c565b915061054782610508565b602082019050919050565b5f6020820190508181035f83015261056981610530565b9050919050565b5f6020820190506105835f8301846103f8565b9291505056fea2646970667358221220593dac902058173801cdc4b6918de2096b0082be5ae59c4d7fc730506dc089a964736f6c634300081e0033', \n     arguments: [\n     ]\n}).send({\n     from: web3.eth.accounts[0], \n     gas: '4700000'\n   }, function (e, contract){\n    console.log(e, contract);\n    if (typeof contract.address !== 'undefined') {\n         console.log('Contract mined! address: ' + contract.address + ' transactionHash: ' + contract.transactionHash);\n    }\n })",
	"functionHashes": {
		"4847a470": "registerDocument(string)",
		"beee5eb7": "verifyDocument(string)"
	},
	"gasEstimates": {
		"Creation": {
			"codeDepositCost": "294200",
			"executionCost": "329",
			"totalCost": "294529"
		},
		"External": {
			"registerDocument(string)": "infinite",
			"verifyDocument(string)": "infinite"
		}
	},
	"devdoc": {
		"kind": "dev",
		"methods": {},
		"version": 1
	},
	"userdoc": {
		"kind": "user",
		"methods": {},
		"version": 1
	},
	"Runtime Bytecode": {
		"immutableReferences": {},
		"linkReferences": {},
		"object": "608060405234801561000f575f5ffd5b5060043610610034575f3560e01c80634847a47014610038578063beee5eb714610054575b5f5ffd5b610052600480360381019061004d919061034b565b610086565b005b61006e6004803603810190610069919061034b565b610235565b60405161007d93929190610407565b60405180910390f35b604082829050146100cc576040517f08c379a00000000000000000000000000000000000000000000000000000000081526004016100c390610496565b60405180910390fd5b5f5f83836040516100de9291906104f0565b90815260200160405180910390206001015414610130576040517f08c379a000000000000000000000000000000000000000000000000000000000815260040161012790610552565b60405180910390fd5b60405180604001604052803373ffffffffffffffffffffffffffffffffffffffff168152602001428152505f838360405161016c9291906104f0565b90815260200160405180910390205f820151815f015f6101000a81548173ffffffffffffffffffffffffffffffffffffffff021916908373ffffffffffffffffffffffffffffffffffffffff160217905550602082015181600101559050503373ffffffffffffffffffffffffffffffffffffffff1682826040516101f29291906104f0565b60405180910390207fa480cfd3e8635016e70d79cba8736969cb3674ce0af6b5e1229168453689088c426040516102299190610570565b60405180910390a35050565b5f5f5f5f5f868660405161024a9291906104f0565b90815260200160405180910390206040518060400160405290815f82015f9054906101000a900473ffffffffffffffffffffffffffffffffffffffff1673ffffffffffffffffffffffffffffffffffffffff1673ffffffffffffffffffffffffffffffffffffffff16815260200160018201548152505090505f816020015114159350805f0151925080602001519150509250925092565b5f5ffd5b5f5ffd5b5f5ffd5b5f5ffd5b5f5ffd5b5f5f83601f84011261030b5761030a6102ea565b5b8235905067ffffffffffffffff811115610328576103276102ee565b5b602083019150836001820283011115610344576103436102f2565b5b9250929050565b5f5f60208385031215610361576103606102e2565b5b5f83013567ffffffffffffffff81111561037e5761037d6102e6565b5b61038a858286016102f6565b92509250509250929050565b5f8115159050919050565b6103aa81610396565b82525050565b5f73ffffffffffffffffffffffffffffffffffffffff82169050919050565b5f6103d9826103b0565b9050919050565b6103e9816103cf565b82525050565b5f819050919050565b610401816103ef565b82525050565b5f60608201905061041a5f8301866103a1565b61042760208301856103e0565b61043460408301846103f8565b949350505050565b5f82825260208201905092915050565b7f496e76616c6964205348412d32353620686173680000000000000000000000005f82015250565b5f61048060148361043c565b915061048b8261044c565b602082019050919050565b5f6020820190508181035f8301526104ad81610474565b9050919050565b5f81905092915050565b828183375f83830152505050565b5f6104d783856104b4565b93506104e48385846104be565b82840190509392505050565b5f6104fc8284866104cc565b91508190509392505050565b7f446f63756d656e7420616c7265616479207265676973746572656400000000005f82015250565b5f61053c601b8361043c565b915061054782610508565b602082019050919050565b5f6020820190508181035f83015261056981610530565b9050919050565b5f6020820190506105835f8301846103f8565b9291505056fea2646970667358221220593dac902058173801cdc4b6918de2096b0082be5ae59c4d7fc730506dc089a964736f6c634300081e0033",
		"opcodes": "PUSH1 0x80 PUSH1 0x40 MSTORE CALLVALUE DUP1 ISZERO PUSH2 0xF JUMPI PUSH0 PUSH0 REVERT JUMPDEST POP PUSH1 0x4 CALLDATASIZE LT PUSH2 0x34 JUMPI PUSH0 CALLDATALOAD PUSH1 0xE0 SHR DUP1 PUSH4 0x4847A470 EQ PUSH2 0x38 JUMPI DUP1 PUSH4 0xBEEE5EB7 EQ PUSH2 0x54 JUMPI JUMPDEST PUSH0 PUSH0 REVERT JUMPDEST PUSH2 0x52 PUSH1 0x4 DUP1 CALLDATASIZE SUB DUP2 ADD SWAP1 PUSH2 0x4D SWAP2 SWAP1 PUSH2 0x34B JUMP JUMPDEST PUSH2 0x86 JUMP JUMPDEST STOP JUMPDEST PUSH2 0x6E PUSH1 0x4 DUP1 CALLDATASIZE SUB DUP2 ADD SWAP1 PUSH2 0x69 SWAP2 SWAP1 PUSH2 0x34B JUMP JUMPDEST PUSH2 0x235 JUMP JUMPDEST PUSH1 0x40 MLOAD PUSH2 0x7D SWAP4 SWAP3 SWAP2 SWAP1 PUSH2 0x407 JUMP JUMPDEST PUSH1 0x40 MLOAD DUP1 SWAP2 SUB SWAP1 RETURN JUMPDEST PUSH1 0x40 DUP3 DUP3 SWAP1 POP EQ PUSH2 0xCC JUMPI PUSH1 0x40 MLOAD PUSH32 0x8C379A000000000000000000000000000000000000000000000000000000000 DUP2 MSTORE PUSH1 0x4 ADD PUSH2 0xC3 SWAP1 PUSH2 0x496 JUMP JUMPDEST PUSH1 0x40 MLOAD DUP1 SWAP2 SUB SWAP1 REVERT JUMPDEST PUSH0 PUSH0 DUP4 DUP4 PUSH1 0x40 MLOAD PUSH2 0xDE SWAP3 SWAP2 SWAP1 PUSH2 0x4F0 JUMP JUMPDEST SWAP1 DUP2 MSTORE PUSH1 0x20 ADD PUSH1 0x40 MLOAD DUP1 SWAP2 SUB SWAP1 KECCAK256 PUSH1 0x1 ADD SLOAD EQ PUSH2 0x130 JUMPI PUSH1 0x40 MLOAD PUSH32 0x8C379A000000000000000000000000000000000000000000000000000000000 DUP2 MSTORE PUSH1 0x4 ADD PUSH2 0x127 SWAP1 PUSH2 0x552 JUMP JUMPDEST PUSH1 0x40 MLOAD DUP1 SWAP2 SUB SWAP1 REVERT JUMPDEST PUSH1 0x40 MLOAD DUP1 PUSH1 0x40 ADD PUSH1 0x40 MSTORE DUP1 CALLER PUSH20 0xFFFFFFFFFFFFFFFFFFFFFFFFFFFFFFFFFFFFFFFF AND DUP2 MSTORE PUSH1 0x20 ADD TIMESTAMP DUP2 MSTORE POP PUSH0 DUP4 DUP4 PUSH1 0x40 MLOAD PUSH2 0x16C SWAP3 SWAP2 SWAP1 PUSH2 0x4F0 JUMP JUMPDEST SWAP1 DUP2 MSTORE PUSH1 0x20 ADD PUSH1 0x40 MLOAD DUP1 SWAP2 SUB SWAP1 KECCAK256 PUSH0 DUP3 ADD MLOAD DUP2 PUSH0 ADD PUSH0 PUSH2 0x100 EXP DUP2 SLOAD DUP2 PUSH20 0xFFFFFFFFFFFFFFFFFFFFFFFFFFFFFFFFFFFFFFFF MUL NOT AND SWAP1 DUP4 PUSH20 0xFFFFFFFFFFFFFFFFFFFFFFFFFFFFFFFFFFFFFFFF AND MUL OR SWAP1 SSTORE POP PUSH1 0x20 DUP3 ADD MLOAD DUP2 PUSH1 0x1 ADD SSTORE SWAP1 POP POP CALLER PUSH20 0xFFFFFFFFFFFFFFFFFFFFFFFFFFFFFFFFFFFFFFFF AND DUP3 DUP3 PUSH1 0x40 MLOAD PUSH2 0x1F2 SWAP3 SWAP2 SWAP1 PUSH2 0x4F0 JUMP JUMPDEST PUSH1 0x40 MLOAD DUP1 SWAP2 SUB SWAP1 KECCAK256 PUSH32 0xA480CFD3E8635016E70D79CBA8736969CB3674CE0AF6B5E1229168453689088C TIMESTAMP PUSH1 0x40 MLOAD PUSH2 0x229 SWAP2 SWAP1 PUSH2 0x570 JUMP JUMPDEST PUSH1 0x40 MLOAD DUP1 SWAP2 SUB SWAP1 LOG3 POP POP JUMP JUMPDEST PUSH0 PUSH0 PUSH0 PUSH0 PUSH0 DUP7 DUP7 PUSH1 0x40 MLOAD PUSH2 0x24A SWAP3 SWAP2 SWAP1 PUSH2 0x4F0 JUMP JUMPDEST SWAP1 DUP2 MSTORE PUSH1 0x20 ADD PUSH1 0x40 MLOAD DUP1 SWAP2 SUB SWAP1 KECCAK256 PUSH1 0x40 MLOAD DUP1 PUSH1 0x40 ADD PUSH1 0x40 MSTORE SWAP1 DUP2 PUSH0 DUP3 ADD PUSH0 SWAP1 SLOAD SWAP1 PUSH2 0x100 EXP SWAP1 DIV PUSH20 0xFFFFFFFFFFFFFFFFFFFFFFFFFFFFFFFFFFFFFFFF AND PUSH20 0xFFFFFFFFFFFFFFFFFFFFFFFFFFFFFFFFFFFFFFFF AND PUSH20 0xFFFFFFFFFFFFFFFFFFFFFFFFFFFFFFFFFFFFFFFF AND DUP2 MSTORE PUSH1 0x20 ADD PUSH1 0x1 DUP3 ADD SLOAD DUP2 MSTORE POP POP SWAP1 POP PUSH0 DUP2 PUSH1 0x20 ADD MLOAD EQ ISZERO SWAP4 POP DUP1 PUSH0 ADD MLOAD SWAP3 POP DUP1 PUSH1 0x20 ADD MLOAD SWAP2 POP POP SWAP3 POP SWAP3 POP SWAP3 JUMP JUMPDEST PUSH0 PUSH0 REVERT JUMPDEST PUSH0 PUSH0 REVERT JUMPDEST PUSH0 PUSH0 REVERT JUMPDEST PUSH0 PUSH0 REVERT JUMPDEST PUSH0 PUSH0 REVERT JUMPDEST PUSH0 PUSH0 DUP4 PUSH1 0x1F DUP5 ADD SLT PUSH2 0x30B JUMPI PUSH2 0x30A PUSH2 0x2EA JUMP JUMPDEST JUMPDEST DUP3 CALLDATALOAD SWAP1 POP PUSH8 0xFFFFFFFFFFFFFFFF DUP2 GT ISZERO PUSH2 0x328 JUMPI PUSH2 0x327 PUSH2 0x2EE JUMP JUMPDEST JUMPDEST PUSH1 0x20 DUP4 ADD SWAP2 POP DUP4 PUSH1 0x1 DUP3 MUL DUP4 ADD GT ISZERO PUSH2 0x344 JUMPI PUSH2 0x343 PUSH2 0x2F2 JUMP JUMPDEST JUMPDEST SWAP3 POP SWAP3 SWAP1 POP JUMP JUMPDEST PUSH0 PUSH0 PUSH1 0x20 DUP4 DUP6 SUB SLT ISZERO PUSH2 0x361 JUMPI PUSH2 0x360 PUSH2 0x2E2 JUMP JUMPDEST JUMPDEST PUSH0 DUP4 ADD CALLDATALOAD PUSH8 0xFFFFFFFFFFFFFFFF DUP2 GT ISZERO PUSH2 0x37E JUMPI PUSH2 0x37D PUSH2 0x2E6 JUMP JUMPDEST JUMPDEST PUSH2 0x38A DUP6 DUP3 DUP7 ADD PUSH2 0x2F6 JUMP JUMPDEST SWAP3 POP SWAP3 POP POP SWAP3 POP SWAP3 SWAP1 POP JUMP JUMPDEST PUSH0 DUP2 ISZERO ISZERO SWAP1 POP SWAP2 SWAP1 POP JUMP JUMPDEST PUSH2 0x3AA DUP2 PUSH2 0x396 JUMP JUMPDEST DUP3 MSTORE POP POP JUMP JUMPDEST PUSH0 PUSH20 0xFFFFFFFFFFFFFFFFFFFFFFFFFFFFFFFFFFFFFFFF DUP3 AND SWAP1 POP SWAP2 SWAP1 POP JUMP JUMPDEST PUSH0 PUSH2 0x3D9 DUP3 PUSH2 0x3B0 JUMP JUMPDEST SWAP1 POP SWAP2 SWAP1 POP JUMP JUMPDEST PUSH2 0x3E9 DUP2 PUSH2 0x3CF JUMP JUMPDEST DUP3 MSTORE POP POP JUMP JUMPDEST PUSH0 DUP2 SWAP1 POP SWAP2 SWAP1 POP JUMP JUMPDEST PUSH2 0x401 DUP2 PUSH2 0x3EF JUMP JUMPDEST DUP3 MSTORE POP POP JUMP JUMPDEST PUSH0 PUSH1 0x60 DUP3 ADD SWAP1 POP PUSH2 0x41A PUSH0 DUP4 ADD DUP7 PUSH2 0x3A1 JUMP JUMPDEST PUSH2 0x427 PUSH1 0x20 DUP4 ADD DUP6 PUSH2 0x3E0 JUMP JUMPDEST PUSH2 0x434 PUSH1 0x40 DUP4 ADD DUP5 PUSH2 0x3F8 JUMP JUMPDEST SWAP5 SWAP4 POP POP POP POP JUMP JUMPDEST PUSH0 DUP3 DUP3 MSTORE PUSH1 0x20 DUP3 ADD SWAP1 POP SWAP3 SWAP2 POP POP JUMP JUMPDEST PUSH32 0x496E76616C6964205348412D3235362068617368000000000000000000000000 PUSH0 DUP3 ADD MSTORE POP JUMP JUMPDEST PUSH0 PUSH2 0x480 PUSH1 0x14 DUP4 PUSH2 0x43C JUMP JUMPDEST SWAP2 POP PUSH2 0x48B DUP3 PUSH2 0x44C JUMP JUMPDEST PUSH1 0x20 DUP3 ADD SWAP1 POP SWAP2 SWAP1 POP JUMP JUMPDEST PUSH0 PUSH1 0x20 DUP3 ADD SWAP1 POP DUP2 DUP2 SUB PUSH0 DUP4 ADD MSTORE PUSH2 0x4AD DUP2 PUSH2 0x474 JUMP JUMPDEST SWAP1 POP SWAP2 SWAP1 POP JUMP JUMPDEST PUSH0 DUP2 SWAP1 POP SWAP3 SWAP2 POP POP JUMP JUMPDEST DUP3 DUP2 DUP4 CALLDATACOPY PUSH0 DUP4 DUP4 ADD MSTORE POP POP POP JUMP JUMPDEST PUSH0 PUSH2 0x4D7 DUP4 DUP6 PUSH2 0x4B4 JUMP JUMPDEST SWAP4 POP PUSH2 0x4E4 DUP4 DUP6 DUP5 PUSH2 0x4BE JUMP JUMPDEST DUP3 DUP5 ADD SWAP1 POP SWAP4 SWAP3 POP POP POP JUMP JUMPDEST PUSH0 PUSH2 0x4FC DUP3 DUP5 DUP7 PUSH2 0x4CC JUMP JUMPDEST SWAP2 POP DUP2 SWAP1 POP SWAP4 SWAP3 POP POP POP JUMP JUMPDEST PUSH32 0x446F63756D656E7420616C726561647920726567697374657265640000000000 PUSH0 DUP3 ADD MSTORE POP JUMP JUMPDEST PUSH0 PUSH2 0x53C PUSH1 0x1B DUP4 PUSH2 0x43C JUMP JUMPDEST SWAP2 POP PUSH2 0x547 DUP3 PUSH2 0x508 JUMP JUMPDEST PUSH1 0x20 DUP3 ADD SWAP1 POP SWAP2 SWAP1 POP JUMP JUMPDEST PUSH0 PUSH1 0x20 DUP3 ADD SWAP1 POP DUP2 DUP2 SUB PUSH0 DUP4 ADD MSTORE PUSH2 0x569 DUP2 PUSH2 0x530 JUMP JUMPDEST SWAP1 POP SWAP2 SWAP1 POP JUMP JUMPDEST PUSH0 PUSH1 0x20 DUP3 ADD SWAP1 POP PUSH2 0x583 PUSH0 DUP4 ADD DUP5 PUSH2 0x3F8 JUMP JUMPDEST SWAP3 SWAP2 POP POP JUMP INVALID LOG2 PUSH5 0x6970667358 0x22 SLT KECCAK256 MSIZE RETURNDATASIZE 0xAC SWAP1 KECCAK256 PC OR CODESIZE ADD 0xCD 0xC4 0xB6 SWAP2 DUP14 0xE2 MULMOD PUSH12 0x82BE5AE59C4D7FC730506D 0xC0 DUP10 0xA9 PUSH5 0x736F6C6343 STOP ADDMOD 0x1E STOP CALLER "
	},
	"Assembly": ".code\n  PUSH 80\t\t\tcontract DocumentRegistry {\\r\\...\n  PUSH 40\t\t\tcontract DocumentRegistry {\\r\\...\n  MSTORE \t\t\tcontract DocumentRegistry {\\r\\...\n  CALLVALUE \t\t\tcontract DocumentRegistry {\\r\\...\n  DUP1 \t\t\tcontract DocumentRegistry {\\r\\...\n  ISZERO \t\t\tcontract DocumentRegistry {\\r\\...\n  PUSH [tag] 1\t\t\tcontract DocumentRegistry {\\r\\...\n  JUMPI \t\t\tcontract DocumentRegistry {\\r\\...\n  PUSH 0\t\t\tcontract DocumentRegistry {\\r\\...\n  PUSH 0\t\t\tcontract DocumentRegistry {\\r\\...\n  REVERT \t\t\tcontract DocumentRegistry {\\r\\...\ntag 1\t\t\tcontract DocumentRegistry {\\r\\...\n  JUMPDEST \t\t\tcontract DocumentRegistry {\\r\\...\n  POP \t\t\tcontract DocumentRegistry {\\r\\...\n  PUSH #[$] 0000000000000000000000000000000000000000000000000000000000000000\t\t\tcontract DocumentRegistry {\\r\\...\n  DUP1 \t\t\tcontract DocumentRegistry {\\r\\...\n  PUSH [$] 0000000000000000000000000000000000000000000000000000000000000000\t\t\tcontract DocumentRegistry {\\r\\...\n  PUSH 0\t\t\tcontract DocumentRegistry {\\r\\...\n  CODECOPY \t\t\tcontract DocumentRegistry {\\r\\...\n  PUSH 0\t\t\tcontract DocumentRegistry {\\r\\...\n  RETURN \t\t\tcontract DocumentRegistry {\\r\\...\n.data\n  0:\n    .code\n      PUSH 80\t\t\tcontract DocumentRegistry {\\r\\...\n      PUSH 40\t\t\tcontract DocumentRegistry {\\r\\...\n      MSTORE \t\t\tcontract DocumentRegistry {\\r\\...\n      CALLVALUE \t\t\tcontract DocumentRegistry {\\r\\...\n      DUP1 \t\t\tcontract DocumentRegistry {\\r\\...\n      ISZERO \t\t\tcontract DocumentRegistry {\\r\\...\n      PUSH [tag] 1\t\t\tcontract DocumentRegistry {\\r\\...\n      JUMPI \t\t\tcontract DocumentRegistry {\\r\\...\n      PUSH 0\t\t\tcontract DocumentRegistry {\\r\\...\n      PUSH 0\t\t\tcontract DocumentRegistry {\\r\\...\n      REVERT \t\t\tcontract DocumentRegistry {\\r\\...\n    tag 1\t\t\tcontract DocumentRegistry {\\r\\...\n      JUMPDEST \t\t\tcontract DocumentRegistry {\\r\\...\n      POP \t\t\tcontract DocumentRegistry {\\r\\...\n      PUSH 4\t\t\tcontract DocumentRegistry {\\r\\...\n      CALLDATASIZE \t\t\tcontract DocumentRegistry {\\r\\...\n      LT \t\t\tcontract DocumentRegistry {\\r\\...\n      PUSH [tag] 2\t\t\tcontract DocumentRegistry {\\r\\...\n      JUMPI \t\t\tcontract DocumentRegistry {\\r\\...\n      PUSH 0\t\t\tcontract DocumentRegistry {\\r\\...\n      CALLDATALOAD \t\t\tcontract DocumentRegistry {\\r\\...\n      PUSH E0\t\t\tcontract DocumentRegistry {\\r\\...\n      SHR \t\t\tcontract DocumentRegistry {\\r\\...\n      DUP1 \t\t\tcontract DocumentRegistry {\\r\\...\n      PUSH 4847A470\t\t\tcontract DocumentRegistry {\\r\\...\n      EQ \t\t\tcontract DocumentRegistry {\\r\\...\n      PUSH [tag] 3\t\t\tcontract DocumentRegistry {\\r\\...\n      JUMPI \t\t\tcontract DocumentRegistry {\\r\\...\n      DUP1 \t\t\tcontract DocumentRegistry {\\r\\...\n      PUSH BEEE5EB7\t\t\tcontract DocumentRegistry {\\r\\...\n      EQ \t\t\tcontract DocumentRegistry {\\r\\...\n      PUSH [tag] 4\t\t\tcontract DocumentRegistry {\\r\\...\n      JUMPI \t\t\tcontract DocumentRegistry {\\r\\...\n    tag 2\t\t\tcontract DocumentRegistry {\\r\\...\n      JUMPDEST \t\t\tcontract DocumentRegistry {\\r\\...\n      PUSH 0\t\t\tcontract DocumentRegistry {\\r\\...\n      PUSH 0\t\t\tcontract DocumentRegistry {\\r\\...\n      REVERT \t\t\tcontract DocumentRegistry {\\r\\...\n    tag 3\t\t\tfunction registerDocument(stri...\n      JUMPDEST \t\t\tfunction registerDocument(stri...\n      PUSH [tag] 5\t\t\tfunction registerDocument(stri...\n      PUSH 4\t\t\tfunction registerDocument(stri...\n      DUP1 \t\t\tfunction registerDocument(stri...\n      CALLDATASIZE \t\t\tfunction registerDocument(stri...\n      SUB \t\t\tfunction registerDocument(stri...\n      DUP2 \t\t\tfunction registerDocument(stri...\n      ADD \t\t\tfunction registerDocument(stri...\n      SWAP1 \t\t\tfunction registerDocument(stri...\n      PUSH [tag] 6\t\t\tfunction registerDocument(stri...\n      SWAP2 \t\t\tfunction registerDocument(stri...\n      SWAP1 \t\t\tfunction registerDocument(stri...\n      PUSH [tag] 7\t\t\tfunction registerDocument(stri...\n      JUMP \t\t\tfunction registerDocument(stri...\n    tag 6\t\t\tfunction registerDocument(stri...\n      JUMPDEST \t\t\tfunction registerDocument(stri...\n      PUSH [tag] 8\t\t\tfunction registerDocument(stri...\n      JUMP \t\t\tfunction registerDocument(stri...\n    tag 5\t\t\tfunction registerDocument(stri...\n      JUMPDEST \t\t\tfunction registerDocument(stri...\n      STOP \t\t\tfunction registerDocument(stri...\n    tag 4\t\t\tfunction verifyDocument(string...\n      JUMPDEST \t\t\tfunction verifyDocument(string...\n      PUSH [tag] 9\t\t\tfunction verifyDocument(string...\n      PUSH 4\t\t\tfunction verifyDocument(string...\n      DUP1 \t\t\tfunction verifyDocument(string...\n      CALLDATASIZE \t\t\tfunction verifyDocument(string...\n      SUB \t\t\tfunction verifyDocument(string...\n      DUP2 \t\t\tfunction verifyDocument(string...\n      ADD \t\t\tfunction verifyDocument(string...\n      SWAP1 \t\t\tfunction verifyDocument(string...\n      PUSH [tag] 10\t\t\tfunction verifyDocument(string...\n      SWAP2 \t\t\tfunction verifyDocument(string...\n      SWAP1 \t\t\tfunction verifyDocument(string...\n      PUSH [tag] 7\t\t\tfunction verifyDocument(string...\n      JUMP \t\t\tfunction verifyDocument(string...\n    tag 10\t\t\tfunction verifyDocument(string...\n      JUMPDEST \t\t\tfunction verifyDocument(string...\n      PUSH [tag] 11\t\t\tfunction verifyDocument(string...\n      JUMP \t\t\tfunction verifyDocument(string...\n    tag 9\t\t\tfunction verifyDocument(string...\n      JUMPDEST \t\t\tfunction verifyDocument(string...\n      PUSH 40\t\t\tfunction verifyDocument(string...\n      MLOAD \t\t\tfunction verifyDocument(string...\n      PUSH [tag] 12\t\t\tfunction verifyDocument(string...\n      SWAP4 \t\t\tfunction verifyDocument(string...\n      SWAP3 \t\t\tfunction verifyDocument(string...\n      SWAP2 \t\t\tfunction verifyDocument(string...\n      SWAP1 \t\t\tfunction verifyDocument(string...\n      PUSH [tag] 13\t\t\tfunction verifyDocument(string...\n      JUMP \t\t\tfunction verifyDocument(string...\n    tag 12\t\t\tfunction verifyDocument(string...\n      JUMPDEST \t\t\tfunction verifyDocument(string...\n      PUSH 40\t\t\tfunction verifyDocument(string...\n      MLOAD \t\t\tfunction verifyDocument(string...\n      DUP1 \t\t\tfunction verifyDocument(string...\n      SWAP2 \t\t\tfunction verifyDocument(string...\n      SUB \t\t\tfunction verifyDocument(string...\n      SWAP1 \t\t\tfunction verifyDocument(string...\n      RETURN \t\t\tfunction verifyDocument(string...\n    tag 8\t\t\tfunction registerDocument(stri...\n      JUMPDEST \t\t\tfunction registerDocument(stri...\n      PUSH 40\t\t\t64\n      DUP3 \t\t\tdocHash\n      DUP3 \t\t\tdocHash\n      SWAP1 \t\t\tbytes(docHash).length\n      POP \t\t\tbytes(docHash).length\n      EQ \t\t\tbytes(docHash).length == 64\n      PUSH [tag] 15\t\t\trequire(bytes(docHash).length ...\n      JUMPI \t\t\trequire(bytes(docHash).length ...\n      PUSH 40\t\t\trequire(bytes(docHash).length ...\n      MLOAD \t\t\trequire(bytes(docHash).length ...\n      PUSH 8C379A000000000000000000000000000000000000000000000000000000000\t\t\trequire(bytes(docHash).length ...\n      DUP2 \t\t\trequire(bytes(docHash).length ...\n      MSTORE \t\t\trequire(bytes(docHash).length ...\n      PUSH 4\t\t\trequire(bytes(docHash).length ...\n      ADD \t\t\trequire(bytes(docHash).length ...\n      PUSH [tag] 16\t\t\trequire(bytes(docHash).length ...\n      SWAP1 \t\t\trequire(bytes(docHash).length ...\n      PUSH [tag] 17\t\t\trequire(bytes(docHash).length ...\n      JUMP \t\t\trequire(bytes(docHash).length ...\n    tag 16\t\t\trequire(bytes(docHash).length ...\n      JUMPDEST \t\t\trequire(bytes(docHash).length ...\n      PUSH 40\t\t\trequire(bytes(docHash).length ...\n      MLOAD \t\t\trequire(bytes(docHash).length ...\n      DUP1 \t\t\trequire(bytes(docHash).length ...\n      SWAP2 \t\t\trequire(bytes(docHash).length ...\n      SUB \t\t\trequire(bytes(docHash).length ...\n      SWAP1 \t\t\trequire(bytes(docHash).length ...\n      REVERT \t\t\trequire(bytes(docHash).length ...\n    tag 15\t\t\trequire(bytes(docHash).length ...\n      JUMPDEST \t\t\trequire(bytes(docHash).length ...\n      PUSH 0\t\t\t0\n      PUSH 0\t\t\tdocuments\n      DUP4 \t\t\tdocHash\n      DUP4 \t\t\tdocHash\n      PUSH 40\t\t\tdocuments[docHash]\n      MLOAD \t\t\tdocuments[docHash]\n      PUSH [tag] 18\t\t\tdocuments[docHash]\n      SWAP3 \t\t\tdocuments[docHash]\n      SWAP2 \t\t\tdocuments[docHash]\n      SWAP1 \t\t\tdocuments[docHash]\n      PUSH [tag] 19\t\t\tdocuments[docHash]\n      JUMP \t\t\tdocuments[docHash]\n    tag 18\t\t\tdocuments[docHash]\n      JUMPDEST \t\t\tdocuments[docHash]\n      SWAP1 \t\t\tdocuments[docHash]\n      DUP2 \t\t\tdocuments[docHash]\n      MSTORE \t\t\tdocuments[docHash]\n      PUSH 20\t\t\tdocuments[docHash]\n      ADD \t\t\tdocuments[docHash]\n      PUSH 40\t\t\tdocuments[docHash]\n      MLOAD \t\t\tdocuments[docHash]\n      DUP1 \t\t\tdocuments[docHash]\n      SWAP2 \t\t\tdocuments[docHash]\n      SUB \t\t\tdocuments[docHash]\n      SWAP1 \t\t\tdocuments[docHash]\n      KECCAK256 \t\t\tdocuments[docHash]\n      PUSH 1\t\t\tdocuments[docHash].timestamp\n      ADD \t\t\tdocuments[docHash].timestamp\n      SLOAD \t\t\tdocuments[docHash].timestamp\n      EQ \t\t\tdocuments[docHash].timestamp =...\n      PUSH [tag] 20\t\t\trequire(documents[docHash].tim...\n      JUMPI \t\t\trequire(documents[docHash].tim...\n      PUSH 40\t\t\trequire(documents[docHash].tim...\n      MLOAD \t\t\trequire(documents[docHash].tim...\n      PUSH 8C379A000000000000000000000000000000000000000000000000000000000\t\t\trequire(documents[docHash].tim...\n      DUP2 \t\t\trequire(documents[docHash].tim...\n      MSTORE \t\t\trequire(documents[docHash].tim...\n      PUSH 4\t\t\trequire(documents[docHash].tim...\n      ADD \t\t\trequire(documents[docHash].tim...\n      PUSH [tag] 21\t\t\trequire(documents[docHash].tim...\n      SWAP1 \t\t\trequire(documents[docHash].tim...\n      PUSH [tag] 22\t\t\trequire(documents[docHash].tim...\n      JUMP \t\t\trequire(documents[docHash].tim...\n    tag 21\t\t\trequire(documents[docHash].tim...\n      JUMPDEST \t\t\trequire(documents[docHash].tim...\n      PUSH 40\t\t\trequire(documents[docHash].tim...\n      MLOAD \t\t\trequire(documents[docHash].tim...\n      DUP1 \t\t\trequire(documents[docHash].tim...\n      SWAP2 \t\t\trequire(documents[docHash].tim...\n      SUB \t\t\trequire(documents[docHash].tim...\n      SWAP1 \t\t\trequire(documents[docHash].tim...\n      REVERT \t\t\trequire(documents[docHash].tim...\n    tag 20\t\t\trequire(documents[docHash].tim...\n      JUMPDEST \t\t\trequire(documents[docHash].tim...\n      PUSH 40\t\t\tDocument({\\r\\n            owne...\n      MLOAD \t\t\tDocument({\\r\\n            owne...\n      DUP1 \t\t\tDocument({\\r\\n            owne...\n      PUSH 40\t\t\tDocument({\\r\\n            owne...\n      ADD \t\t\tDocument({\\r\\n            owne...\n      PUSH 40\t\t\tDocument({\\r\\n            owne...\n      MSTORE \t\t\tDocument({\\r\\n            owne...\n      DUP1 \t\t\tDocument({\\r\\n            owne...\n      CALLER \t\t\tmsg.sender\n      PUSH FFFFFFFFFFFFFFFFFFFFFFFFFFFFFFFFFFFFFFFF\t\t\tDocument({\\r\\n            owne...\n      AND \t\t\tDocument({\\r\\n            owne...\n      DUP2 \t\t\tDocument({\\r\\n            owne...\n      MSTORE \t\t\tDocument({\\r\\n            owne...\n      PUSH 20\t\t\tDocument({\\r\\n            owne...\n      ADD \t\t\tDocument({\\r\\n            owne...\n      TIMESTAMP \t\t\tblock.timestamp\n      DUP2 \t\t\tDocument({\\r\\n            owne...\n      MSTORE \t\t\tDocument({\\r\\n            owne...\n      POP \t\t\tDocument({\\r\\n            owne...\n      PUSH 0\t\t\tdocuments\n      DUP4 \t\t\tdocHash\n      DUP4 \t\t\tdocHash\n      PUSH 40\t\t\tdocuments[docHash]\n      MLOAD \t\t\tdocuments[docHash]\n      PUSH [tag] 23\t\t\tdocuments[docHash]\n      SWAP3 \t\t\tdocuments[docHash]\n      SWAP2 \t\t\tdocuments[docHash]\n      SWAP1 \t\t\tdocuments[docHash]\n      PUSH [tag] 19\t\t\tdocuments[docHash]\n      JUMP \t\t\tdocuments[docHash]\n    tag 23\t\t\tdocuments[docHash]\n      JUMPDEST \t\t\tdocuments[docHash]\n      SWAP1 \t\t\tdocuments[docHash]\n      DUP2 \t\t\tdocuments[docHash]\n      MSTORE \t\t\tdocuments[docHash]\n      PUSH 20\t\t\tdocuments[docHash]\n      ADD \t\t\tdocuments[docHash]\n      PUSH 40\t\t\tdocuments[docHash]\n      MLOAD \t\t\tdocuments[docHash]\n      DUP1 \t\t\tdocuments[docHash]\n      SWAP2 \t\t\tdocuments[docHash]\n      SUB \t\t\tdocuments[docHash]\n      SWAP1 \t\t\tdocuments[docHash]\n      KECCAK256 \t\t\tdocuments[docHash]\n      PUSH 0\t\t\tdocuments[docHash] = Document(...\n      DUP3 \t\t\tdocuments[docHash] = Document(...\n      ADD \t\t\tdocuments[docHash] = Document(...\n      MLOAD \t\t\tdocuments[docHash] = Document(...\n      DUP2 \t\t\tdocuments[docHash] = Document(...\n      PUSH 0\t\t\tdocuments[docHash] = Document(...\n      ADD \t\t\tdocuments[docHash] = Document(...\n      PUSH 0\t\t\tdocuments[docHash] = Document(...\n      PUSH 100\t\t\tdocuments[docHash] = Document(...\n      EXP \t\t\tdocuments[docHash] = Document(...\n      DUP2 \t\t\tdocuments[docHash] = Document(...\n      SLOAD \t\t\tdocuments[docHash] = Document(...\n      DUP2 \t\t\tdocuments[docHash] = Document(...\n      PUSH FFFFFFFFFFFFFFFFFFFFFFFFFFFFFFFFFFFFFFFF\t\t\tdocuments[docHash] = Document(...\n      MUL \t\t\tdocuments[docHash] = Document(...\n      NOT \t\t\tdocuments[docHash] = Document(...\n      AND \t\t\tdocuments[docHash] = Document(...\n      SWAP1 \t\t\tdocuments[docHash] = Document(...\n      DUP4 \t\t\tdocuments[docHash] = Document(...\n      PUSH FFFFFFFFFFFFFFFFFFFFFFFFFFFFFFFFFFFFFFFF\t\t\tdocuments[docHash] = Document(...\n      AND \t\t\tdocuments[docHash] = Document(...\n      MUL \t\t\tdocuments[docHash] = Document(...\n      OR \t\t\tdocuments[docHash] = Document(...\n      SWAP1 \t\t\tdocuments[docHash] = Document(...\n      SSTORE \t\t\tdocuments[docHash] = Document(...\n      POP \t\t\tdocuments[docHash] = Document(...\n      PUSH 20\t\t\tdocuments[docHash] = Document(...\n      DUP3 \t\t\tdocuments[docHash] = Document(...\n      ADD \t\t\tdocuments[docHash] = Document(...\n      MLOAD \t\t\tdocuments[docHash] = Document(...\n      DUP2 \t\t\tdocuments[docHash] = Document(...\n      PUSH 1\t\t\tdocuments[docHash] = Document(...\n      ADD \t\t\tdocuments[docHash] = Document(...\n      SSTORE \t\t\tdocuments[docHash] = Document(...\n      SWAP1 \t\t\tdocuments[docHash] = Document(...\n      POP \t\t\tdocuments[docHash] = Document(...\n      POP \t\t\tdocuments[docHash] = Document(...\n      CALLER \t\t\tmsg.sender\n      PUSH FFFFFFFFFFFFFFFFFFFFFFFFFFFFFFFFFFFFFFFF\t\t\tDocumentRegistered(docHash, ms...\n      AND \t\t\tDocumentRegistered(docHash, ms...\n      DUP3 \t\t\tdocHash\n      DUP3 \t\t\tdocHash\n      PUSH 40\t\t\tDocumentRegistered(docHash, ms...\n      MLOAD \t\t\tDocumentRegistered(docHash, ms...\n      PUSH [tag] 24\t\t\tDocumentRegistered(docHash, ms...\n      SWAP3 \t\t\tDocumentRegistered(docHash, ms...\n      SWAP2 \t\t\tDocumentRegistered(docHash, ms...\n      SWAP1 \t\t\tDocumentRegistered(docHash, ms...\n      PUSH [tag] 19\t\t\tDocumentRegistered(docHash, ms...\n      JUMP \t\t\tDocumentRegistered(docHash, ms...\n    tag 24\t\t\tDocumentRegistered(docHash, ms...\n      JUMPDEST \t\t\tDocumentRegistered(docHash, ms...\n      PUSH 40\t\t\tDocumentRegistered(docHash, ms...\n      MLOAD \t\t\tDocumentRegistered(docHash, ms...\n      DUP1 \t\t\tDocumentRegistered(docHash, ms...\n      SWAP2 \t\t\tDocumentRegistered(docHash, ms...\n      SUB \t\t\tDocumentRegistered(docHash, ms...\n      SWAP1 \t\t\tDocumentRegistered(docHash, ms...\n      KECCAK256 \t\t\tDocumentRegistered(docHash, ms...\n      PUSH A480CFD3E8635016E70D79CBA8736969CB3674CE0AF6B5E1229168453689088C\t\t\tDocumentRegistered(docHash, ms...\n      TIMESTAMP \t\t\tblock.timestamp\n      PUSH 40\t\t\tDocumentRegistered(docHash, ms...\n      MLOAD \t\t\tDocumentRegistered(docHash, ms...\n      PUSH [tag] 25\t\t\tDocumentRegistered(docHash, ms...\n      SWAP2 \t\t\tDocumentRegistered(docHash, ms...\n      SWAP1 \t\t\tDocumentRegistered(docHash, ms...\n      PUSH [tag] 26\t\t\tDocumentRegistered(docHash, ms...\n      JUMP \t\t\tDocumentRegistered(docHash, ms...\n    tag 25\t\t\tDocumentRegistered(docHash, ms...\n      JUMPDEST \t\t\tDocumentRegistered(docHash, ms...\n      PUSH 40\t\t\tDocumentRegistered(docHash, ms...\n      MLOAD \t\t\tDocumentRegistered(docHash, ms...\n      DUP1 \t\t\tDocumentRegistered(docHash, ms...\n      SWAP2 \t\t\tDocumentRegistered(docHash, ms...\n      SUB \t\t\tDocumentRegistered(docHash, ms...\n      SWAP1 \t\t\tDocumentRegistered(docHash, ms...\n      LOG3 \t\t\tDocumentRegistered(docHash, ms...\n      POP \t\t\tfunction registerDocument(stri...\n      POP \t\t\tfunction registerDocument(stri...\n      JUMP \t\t\tfunction registerDocument(stri...\n    tag 11\t\t\tfunction verifyDocument(string...\n      JUMPDEST \t\t\tfunction verifyDocument(string...\n      PUSH 0\t\t\tbool exists\n      PUSH 0\t\t\taddress owner\n      PUSH 0\t\t\tuint256 timestamp\n      PUSH 0\t\t\tDocument memory doc\n      PUSH 0\t\t\tdocuments\n      DUP7 \t\t\tdocHash\n      DUP7 \t\t\tdocHash\n      PUSH 40\t\t\tdocuments[docHash]\n      MLOAD \t\t\tdocuments[docHash]\n      PUSH [tag] 28\t\t\tdocuments[docHash]\n      SWAP3 \t\t\tdocuments[docHash]\n      SWAP2 \t\t\tdocuments[docHash]\n      SWAP1 \t\t\tdocuments[docHash]\n      PUSH [tag] 19\t\t\tdocuments[docHash]\n      JUMP \t\t\tdocuments[docHash]\n    tag 28\t\t\tdocuments[docHash]\n      JUMPDEST \t\t\tdocuments[docHash]\n      SWAP1 \t\t\tdocuments[docHash]\n      DUP2 \t\t\tdocuments[docHash]\n      MSTORE \t\t\tdocuments[docHash]\n      PUSH 20\t\t\tdocuments[docHash]\n      ADD \t\t\tdocuments[docHash]\n      PUSH 40\t\t\tdocuments[docHash]\n      MLOAD \t\t\tdocuments[docHash]\n      DUP1 \t\t\tdocuments[docHash]\n      SWAP2 \t\t\tdocuments[docHash]\n      SUB \t\t\tdocuments[docHash]\n      SWAP1 \t\t\tdocuments[docHash]\n      KECCAK256 \t\t\tdocuments[docHash]\n      PUSH 40\t\t\tDocument memory doc = document...\n      MLOAD \t\t\tDocument memory doc = document...\n      DUP1 \t\t\tDocument memory doc = document...\n      PUSH 40\t\t\tDocument memory doc = document...\n      ADD \t\t\tDocument memory doc = document...\n      PUSH 40\t\t\tDocument memory doc = document...\n      MSTORE \t\t\tDocument memory doc = document...\n      SWAP1 \t\t\tDocument memory doc = document...\n      DUP2 \t\t\tDocument memory doc = document...\n      PUSH 0\t\t\tDocument memory doc = document...\n      DUP3 \t\t\tDocument memory doc = document...\n      ADD \t\t\tDocument memory doc = document...\n      PUSH 0\t\t\tDocument memory doc = document...\n      SWAP1 \t\t\tDocument memory doc = document...\n      SLOAD \t\t\tDocument memory doc = document...\n      SWAP1 \t\t\tDocument memory doc = document...\n      PUSH 100\t\t\tDocument memory doc = document...\n      EXP \t\t\tDocument memory doc = document...\n      SWAP1 \t\t\tDocument memory doc = document...\n      DIV \t\t\tDocument memory doc = document...\n      PUSH FFFFFFFFFFFFFFFFFFFFFFFFFFFFFFFFFFFFFFFF\t\t\tDocument memory doc = document...\n      AND \t\t\tDocument memory doc = document...\n      PUSH FFFFFFFFFFFFFFFFFFFFFFFFFFFFFFFFFFFFFFFF\t\t\tDocument memory doc = document...\n      AND \t\t\tDocument memory doc = document...\n      PUSH FFFFFFFFFFFFFFFFFFFFFFFFFFFFFFFFFFFFFFFF\t\t\tDocument memory doc = document...\n      AND \t\t\tDocument memory doc = document...\n      DUP2 \t\t\tDocument memory doc = document...\n      MSTORE \t\t\tDocument memory doc = document...\n      PUSH 20\t\t\tDocument memory doc = document...\n      ADD \t\t\tDocument memory doc = document...\n      PUSH 1\t\t\tDocument memory doc = document...\n      DUP3 \t\t\tDocument memory doc = document...\n      ADD \t\t\tDocument memory doc = document...\n      SLOAD \t\t\tDocument memory doc = document...\n      DUP2 \t\t\tDocument memory doc = document...\n      MSTORE \t\t\tDocument memory doc = document...\n      POP \t\t\tDocument memory doc = document...\n      POP \t\t\tDocument memory doc = document...\n      SWAP1 \t\t\tDocument memory doc = document...\n      POP \t\t\tDocument memory doc = document...\n      PUSH 0\t\t\t0\n      DUP2 \t\t\tdoc\n      PUSH 20\t\t\tdoc.timestamp\n      ADD \t\t\tdoc.timestamp\n      MLOAD \t\t\tdoc.timestamp\n      EQ \t\t\tdoc.timestamp != 0\n      ISZERO \t\t\tdoc.timestamp != 0\n      SWAP4 \t\t\texists = doc.timestamp != 0\n      POP \t\t\texists = doc.timestamp != 0\n      DUP1 \t\t\tdoc\n      PUSH 0\t\t\tdoc.owner\n      ADD \t\t\tdoc.owner\n      MLOAD \t\t\tdoc.owner\n      SWAP3 \t\t\towner = doc.owner\n      POP \t\t\towner = doc.owner\n      DUP1 \t\t\tdoc\n      PUSH 20\t\t\tdoc.timestamp\n      ADD \t\t\tdoc.timestamp\n      MLOAD \t\t\tdoc.timestamp\n      SWAP2 \t\t\ttimestamp = doc.timestamp\n      POP \t\t\ttimestamp = doc.timestamp\n      POP \t\t\t{\\r\\n        Document memory d...\n      SWAP3 \t\t\tfunction verifyDocument(string...\n      POP \t\t\tfunction verifyDocument(string...\n      SWAP3 \t\t\tfunction verifyDocument(string...\n      POP \t\t\tfunction verifyDocument(string...\n      SWAP3 \t\t\tfunction verifyDocument(string...\n      JUMP \t\t\tfunction verifyDocument(string...\n    tag 30\t\t\t\\n    struct Document {\\r\\n   ...\n      JUMPDEST \t\t\t\\n    struct Document {\\r\\n   ...\n      PUSH 0\t\t\tc\n      PUSH 0\t\t\t \n      REVERT \t\t\tring => Docu\n    tag 31\t\t\te documents;\\r\\n\\r\\n    event ...\n      JUMPDEST \t\t\te documents;\\r\\n\\r\\n    event ...\n      PUSH 0\t\t\t)\n      PUSH 0\t\t\ta\n      REVERT \t\t\t timestamp);\n    tag 32\t\t\ttion registerDocument(string c...\n      JUMPDEST \t\t\ttion registerDocument(string c...\n      PUSH 0\t\t\tl\n      PUSH 0\t\t\tn\n      REVERT \t\t\t 64, \"Invali\n    tag 33\t\t\tsh\");\\r\\n        require(docum...\n      JUMPDEST \t\t\tsh\");\\r\\n        require(docum...\n      PUSH 0\t\t\ts\n      PUSH 0\t\t\te\n      REVERT \t\t\t  documents[\n    tag 34\t\t\tocument({\\r\\n            owner...\n      JUMPDEST \t\t\tocument({\\r\\n            owner...\n      PUSH 0\t\t\tt\n      PUSH 0\t\t\te\n      REVERT \t\t\t       emit \n    tag 35\t\t\t, msg.sender, block.timestamp)...\n      JUMPDEST \t\t\t, msg.sender, block.timestamp)...\n      PUSH 0\t\t\tifyDocum\n      PUSH 0\t\t\tt(stri\n      DUP4 \t\t\tboo\n      PUSH 1F\t\t\tturn\n      DUP5 \t\t\t view \n      ADD \t\t\trnal view returns\n      SLT \t\t\texternal view returns (bool\n      PUSH [tag] 59\t\t\t docHash) external view return...\n      JUMPI \t\t\t docHash) external view return...\n      PUSH [tag] 60\t\t\tsts, address owner, uint256 ti...\n      PUSH [tag] 32\t\t\tsts, address owner, uint256 ti...\n      JUMP \t\t\tsts, address owner, uint256 ti...\n    tag 60\t\t\tsts, address owner, uint256 ti...\n      JUMPDEST \t\t\tsts, address owner, uint256 ti...\n    tag 59\t\t\t docHash) external view return...\n      JUMPDEST \t\t\t docHash) external view return...\n      DUP3 \t\t\t.times\n      CALLDATALOAD \t\t\t exists = doc.timest\n      SWAP1 \t\t\t;\\r\\n        exists = doc.time...\n      POP \t\t\t;\\r\\n        exists = doc.time...\n      PUSH FFFFFFFFFFFFFFFF\t\t\tr = doc.owner;\\r\\n  \n      DUP2 \t\t\t    ow\n      GT \t\t\t       owner = doc.owner;\\r\\n ...\n      ISZERO \t\t\t\\r\\n        owner = doc.owner;...\n      PUSH [tag] 61\t\t\t\\r\\n        owner = doc.owner;...\n      JUMPI \t\t\t\\r\\n        owner = doc.owner;...\n      PUSH [tag] 62\t\t\t  timestamp = doc.timestamp;\\r...\n      PUSH [tag] 33\t\t\t  timestamp = doc.timestamp;\\r...\n      JUMP \t\t\t  timestamp = doc.timestamp;\\r...\n    tag 62\t\t\t  timestamp = doc.timestamp;\\r...\n      JUMPDEST \t\t\t  timestamp = doc.timestamp;\\r...\n    tag 61\t\t\t\\r\\n        owner = doc.owner;...\n      JUMPDEST \t\t\t\\r\\n        owner = doc.owner;...\n      PUSH 20\t\t\t\n      DUP4 \t\t\t\n      ADD \t\t\t\n      SWAP2 \t\t\t\n      POP \t\t\t\n      DUP4 \t\t\t\n      PUSH 1\t\t\t\n      DUP3 \t\t\t\n      MUL \t\t\t\n      DUP4 \t\t\t\n      ADD \t\t\t\n      GT \t\t\t\n      ISZERO \t\t\t\n      PUSH [tag] 63\t\t\t\n      JUMPI \t\t\t\n      PUSH [tag] 64\t\t\t\n      PUSH [tag] 34\t\t\t\n      JUMP \t\t\t\n    tag 64\t\t\t\n      JUMPDEST \t\t\t\n    tag 63\t\t\t\n      JUMPDEST \t\t\t\n      SWAP3 \t\t\t, msg.sender, block.timestamp)...\n      POP \t\t\t, msg.sender, block.timestamp)...\n      SWAP3 \t\t\t, msg.sender, block.timestamp)...\n      SWAP1 \t\t\t, msg.sender, block.timestamp)...\n      POP \t\t\t, msg.sender, block.timestamp)...\n      JUMP \t\t\t, msg.sender, block.timestamp)...\n    tag 7\t\t\t\n      JUMPDEST \t\t\t\n      PUSH 0\t\t\t\n      PUSH 0\t\t\t\n      PUSH 20\t\t\t\n      DUP4 \t\t\t\n      DUP6 \t\t\t\n      SUB \t\t\t\n      SLT \t\t\t\n      ISZERO \t\t\t\n      PUSH [tag] 66\t\t\t\n      JUMPI \t\t\t\n      PUSH [tag] 67\t\t\t\n      PUSH [tag] 30\t\t\t\n      JUMP \t\t\t\n    tag 67\t\t\t\n      JUMPDEST \t\t\t\n    tag 66\t\t\t\n      JUMPDEST \t\t\t\n      PUSH 0\t\t\t\n      DUP4 \t\t\t\n      ADD \t\t\t\n      CALLDATALOAD \t\t\t\n      PUSH FFFFFFFFFFFFFFFF\t\t\t\n      DUP2 \t\t\t\n      GT \t\t\t\n      ISZERO \t\t\t\n      PUSH [tag] 68\t\t\t\n      JUMPI \t\t\t\n      PUSH [tag] 69\t\t\t\n      PUSH [tag] 31\t\t\t\n      JUMP \t\t\t\n    tag 69\t\t\t\n      JUMPDEST \t\t\t\n    tag 68\t\t\t\n      JUMPDEST \t\t\t\n      PUSH [tag] 70\t\t\t\n      DUP6 \t\t\t\n      DUP3 \t\t\t\n      DUP7 \t\t\t\n      ADD \t\t\t\n      PUSH [tag] 35\t\t\t\n      JUMP \t\t\t\n    tag 70\t\t\t\n      JUMPDEST \t\t\t\n      SWAP3 \t\t\t\n      POP \t\t\t\n      SWAP3 \t\t\t\n      POP \t\t\t\n      POP \t\t\t\n      SWAP3 \t\t\t\n      POP \t\t\t\n      SWAP3 \t\t\t\n      SWAP1 \t\t\t\n      POP \t\t\t\n      JUMP \t\t\t\n    tag 36\t\t\t\n      JUMPDEST \t\t\t\n      PUSH 0\t\t\t\n      DUP2 \t\t\t\n      ISZERO \t\t\t\n      ISZERO \t\t\t\n      SWAP1 \t\t\t\n      POP \t\t\t\n      SWAP2 \t\t\t\n      SWAP1 \t\t\t\n      POP \t\t\t\n      JUMP \t\t\t\n    tag 37\t\t\t\n      JUMPDEST \t\t\t\n      PUSH [tag] 73\t\t\t\n      DUP2 \t\t\t\n      PUSH [tag] 36\t\t\t\n      JUMP \t\t\t\n    tag 73\t\t\t\n      JUMPDEST \t\t\t\n      DUP3 \t\t\t\n      MSTORE \t\t\t\n      POP \t\t\t\n      POP \t\t\t\n      JUMP \t\t\t\n    tag 38\t\t\t\n      JUMPDEST \t\t\t\n      PUSH 0\t\t\t\n      PUSH FFFFFFFFFFFFFFFFFFFFFFFFFFFFFFFFFFFFFFFF\t\t\t\n      DUP3 \t\t\t\n      AND \t\t\t\n      SWAP1 \t\t\t\n      POP \t\t\t\n      SWAP2 \t\t\t\n      SWAP1 \t\t\t\n      POP \t\t\t\n      JUMP \t\t\t\n    tag 39\t\t\t\n      JUMPDEST \t\t\t\n      PUSH 0\t\t\t\n      PUSH [tag] 76\t\t\t\n      DUP3 \t\t\t\n      PUSH [tag] 38\t\t\t\n      JUMP \t\t\t\n    tag 76\t\t\t\n      JUMPDEST \t\t\t\n      SWAP1 \t\t\t\n      POP \t\t\t\n      SWAP2 \t\t\t\n      SWAP1 \t\t\t\n      POP \t\t\t\n      JUMP \t\t\t\n    tag 40\t\t\t\n      JUMPDEST \t\t\t\n      PUSH [tag] 78\t\t\t\n      DUP2 \t\t\t\n      PUSH [tag] 39\t\t\t\n      JUMP \t\t\t\n    tag 78\t\t\t\n      JUMPDEST \t\t\t\n      DUP3 \t\t\t\n      MSTORE \t\t\t\n      POP \t\t\t\n      POP \t\t\t\n      JUMP \t\t\t\n    tag 41\t\t\t\n      JUMPDEST \t\t\t\n      PUSH 0\t\t\t\n      DUP2 \t\t\t\n      SWAP1 \t\t\t\n      POP \t\t\t\n      SWAP2 \t\t\t\n      SWAP1 \t\t\t\n      POP \t\t\t\n      JUMP \t\t\t\n    tag 42\t\t\t\n      JUMPDEST \t\t\t\n      PUSH [tag] 81\t\t\t\n      DUP2 \t\t\t\n      PUSH [tag] 41\t\t\t\n      JUMP \t\t\t\n    tag 81\t\t\t\n      JUMPDEST \t\t\t\n      DUP3 \t\t\t\n      MSTORE \t\t\t\n      POP \t\t\t\n      POP \t\t\t\n      JUMP \t\t\t\n    tag 13\t\t\t\n      JUMPDEST \t\t\t\n      PUSH 0\t\t\t\n      PUSH 60\t\t\t\n      DUP3 \t\t\t\n      ADD \t\t\t\n      SWAP1 \t\t\t\n      POP \t\t\t\n      PUSH [tag] 83\t\t\t\n      PUSH 0\t\t\t\n      DUP4 \t\t\t\n      ADD \t\t\t\n      DUP7 \t\t\t\n      PUSH [tag] 37\t\t\t\n      JUMP \t\t\t\n    tag 83\t\t\t\n      JUMPDEST \t\t\t\n      PUSH [tag] 84\t\t\t\n      PUSH 20\t\t\t\n      DUP4 \t\t\t\n      ADD \t\t\t\n      DUP6 \t\t\t\n      PUSH [tag] 40\t\t\t\n      JUMP \t\t\t\n    tag 84\t\t\t\n      JUMPDEST \t\t\t\n      PUSH [tag] 85\t\t\t\n      PUSH 40\t\t\t\n      DUP4 \t\t\t\n      ADD \t\t\t\n      DUP5 \t\t\t\n      PUSH [tag] 42\t\t\t\n      JUMP \t\t\t\n    tag 85\t\t\t\n      JUMPDEST \t\t\t\n      SWAP5 \t\t\t\n      SWAP4 \t\t\t\n      POP \t\t\t\n      POP \t\t\t\n      POP \t\t\t\n      POP \t\t\t\n      JUMP \t\t\t\n    tag 43\t\t\t\n      JUMPDEST \t\t\t\n      PUSH 0\t\t\t\n      DUP3 \t\t\t\n      DUP3 \t\t\t\n      MSTORE \t\t\t\n      PUSH 20\t\t\t\n      DUP3 \t\t\t\n      ADD \t\t\t\n      SWAP1 \t\t\t\n      POP \t\t\t\n      SWAP3 \t\t\t\n      SWAP2 \t\t\t\n      POP \t\t\t\n      POP \t\t\t\n      JUMP \t\t\t\n    tag 44\t\t\t\n      JUMPDEST \t\t\t\n      PUSH 496E76616C6964205348412D3235362068617368000000000000000000000000\t\t\t\n      PUSH 0\t\t\t\n      DUP3 \t\t\t\n      ADD \t\t\t\n      MSTORE \t\t\t\n      POP \t\t\t\n      JUMP \t\t\t\n    tag 45\t\t\t\n      JUMPDEST \t\t\t\n      PUSH 0\t\t\t\n      PUSH [tag] 89\t\t\t\n      PUSH 14\t\t\t\n      DUP4 \t\t\t\n      PUSH [tag] 43\t\t\t\n      JUMP \t\t\t\n    tag 89\t\t\t\n      JUMPDEST \t\t\t\n      SWAP2 \t\t\t\n      POP \t\t\t\n      PUSH [tag] 90\t\t\t\n      DUP3 \t\t\t\n      PUSH [tag] 44\t\t\t\n      JUMP \t\t\t\n    tag 90\t\t\t\n      JUMPDEST \t\t\t\n      PUSH 20\t\t\t\n      DUP3 \t\t\t\n      ADD \t\t\t\n      SWAP1 \t\t\t\n      POP \t\t\t\n      SWAP2 \t\t\t\n      SWAP1 \t\t\t\n      POP \t\t\t\n      JUMP \t\t\t\n    tag 17\t\t\t\n      JUMPDEST \t\t\t\n      PUSH 0\t\t\t\n      PUSH 20\t\t\t\n      DUP3 \t\t\t\n      ADD \t\t\t\n      SWAP1 \t\t\t\n      POP \t\t\t\n      DUP2 \t\t\t\n      DUP2 \t\t\t\n      SUB \t\t\t\n      PUSH 0\t\t\t\n      DUP4 \t\t\t\n      ADD \t\t\t\n      MSTORE \t\t\t\n      PUSH [tag] 92\t\t\t\n      DUP2 \t\t\t\n      PUSH [tag] 45\t\t\t\n      JUMP \t\t\t\n    tag 92\t\t\t\n      JUMPDEST \t\t\t\n      SWAP1 \t\t\t\n      POP \t\t\t\n      SWAP2 \t\t\t\n      SWAP1 \t\t\t\n      POP \t\t\t\n      JUMP \t\t\t\n    tag 46\t\t\t\n      JUMPDEST \t\t\t\n      PUSH 0\t\t\t\n      DUP2 \t\t\t\n      SWAP1 \t\t\t\n      POP \t\t\t\n      SWAP3 \t\t\t\n      SWAP2 \t\t\t\n      POP \t\t\t\n      POP \t\t\t\n      JUMP \t\t\t\n    tag 47\t\t\t\n      JUMPDEST \t\t\t\n      DUP3 \t\t\t\n      DUP2 \t\t\t\n      DUP4 \t\t\t\n      CALLDATACOPY \t\t\t\n      PUSH 0\t\t\t\n      DUP4 \t\t\t\n      DUP4 \t\t\t\n      ADD \t\t\t\n      MSTORE \t\t\t\n      POP \t\t\t\n      POP \t\t\t\n      POP \t\t\t\n      JUMP \t\t\t\n    tag 48\t\t\t\n      JUMPDEST \t\t\t\n      PUSH 0\t\t\t\n      PUSH [tag] 96\t\t\t\n      DUP4 \t\t\t\n      DUP6 \t\t\t\n      PUSH [tag] 46\t\t\t\n      JUMP \t\t\t\n    tag 96\t\t\t\n      JUMPDEST \t\t\t\n      SWAP4 \t\t\t\n      POP \t\t\t\n      PUSH [tag] 97\t\t\t\n      DUP4 \t\t\t\n      DUP6 \t\t\t\n      DUP5 \t\t\t\n      PUSH [tag] 47\t\t\t\n      JUMP \t\t\t\n    tag 97\t\t\t\n      JUMPDEST \t\t\t\n      DUP3 \t\t\t\n      DUP5 \t\t\t\n      ADD \t\t\t\n      SWAP1 \t\t\t\n      POP \t\t\t\n      SWAP4 \t\t\t\n      SWAP3 \t\t\t\n      POP \t\t\t\n      POP \t\t\t\n      POP \t\t\t\n      JUMP \t\t\t\n    tag 19\t\t\t\n      JUMPDEST \t\t\t\n      PUSH 0\t\t\t\n      PUSH [tag] 99\t\t\t\n      DUP3 \t\t\t\n      DUP5 \t\t\t\n      DUP7 \t\t\t\n      PUSH [tag] 48\t\t\t\n      JUMP \t\t\t\n    tag 99\t\t\t\n      JUMPDEST \t\t\t\n      SWAP2 \t\t\t\n      POP \t\t\t\n      DUP2 \t\t\t\n      SWAP1 \t\t\t\n      POP \t\t\t\n      SWAP4 \t\t\t\n      SWAP3 \t\t\t\n      POP \t\t\t\n      POP \t\t\t\n      POP \t\t\t\n      JUMP \t\t\t\n    tag 49\t\t\t\n      JUMPDEST \t\t\t\n      PUSH 446F63756D656E7420616C726561647920726567697374657265640000000000\t\t\t\n      PUSH 0\t\t\t\n      DUP3 \t\t\t\n      ADD \t\t\t\n      MSTORE \t\t\t\n      POP \t\t\t\n      JUMP \t\t\t\n    tag 50\t\t\t\n      JUMPDEST \t\t\t\n      PUSH 0\t\t\t\n      PUSH [tag] 102\t\t\t\n      PUSH 1B\t\t\t\n      DUP4 \t\t\t\n      PUSH [tag] 43\t\t\t\n      JUMP \t\t\t\n    tag 102\t\t\t\n      JUMPDEST \t\t\t\n      SWAP2 \t\t\t\n      POP \t\t\t\n      PUSH [tag] 103\t\t\t\n      DUP3 \t\t\t\n      PUSH [tag] 49\t\t\t\n      JUMP \t\t\t\n    tag 103\t\t\t\n      JUMPDEST \t\t\t\n      PUSH 20\t\t\t\n      DUP3 \t\t\t\n      ADD \t\t\t\n      SWAP1 \t\t\t\n      POP \t\t\t\n      SWAP2 \t\t\t\n      SWAP1 \t\t\t\n      POP \t\t\t\n      JUMP \t\t\t\n    tag 22\t\t\t\n      JUMPDEST \t\t\t\n      PUSH 0\t\t\t\n      PUSH 20\t\t\t\n      DUP3 \t\t\t\n      ADD \t\t\t\n      SWAP1 \t\t\t\n      POP \t\t\t\n      DUP2 \t\t\t\n      DUP2 \t\t\t\n      SUB \t\t\t\n      PUSH 0\t\t\t\n      DUP4 \t\t\t\n      ADD \t\t\t\n      MSTORE \t\t\t\n      PUSH [tag] 105\t\t\t\n      DUP2 \t\t\t\n      PUSH [tag] 50\t\t\t\n      JUMP \t\t\t\n    tag 105\t\t\t\n      JUMPDEST \t\t\t\n      SWAP1 \t\t\t\n      POP \t\t\t\n      SWAP2 \t\t\t\n      SWAP1 \t\t\t\n      POP \t\t\t\n      JUMP \t\t\t\n    tag 26\t\t\t\n      JUMPDEST \t\t\t\n      PUSH 0\t\t\t\n      PUSH 20\t\t\t\n      DUP3 \t\t\t\n      ADD \t\t\t\n      SWAP1 \t\t\t\n      POP \t\t\t\n      PUSH [tag] 107\t\t\t\n      PUSH 0\t\t\t\n      DUP4 \t\t\t\n      ADD \t\t\t\n      DUP5 \t\t\t\n      PUSH [tag] 42\t\t\t\n      JUMP \t\t\t\n    tag 107\t\t\t\n      JUMPDEST \t\t\t\n      SWAP3 \t\t\t\n      SWAP2 \t\t\t\n      POP \t\t\t\n      POP \t\t\t\n      JUMP \t\t\t\n    .data\n"
}